:020000040800F2
:1000000004020020850500086D0500086F05000842
:100010007105000873050008750500080000000060
:10002000000000000000000000000000770500084C
:1000300079050008000000007B0500087D05000828
:10004000D5050008D5050008D5050008D505000828
:10005000D5050008D5050008D5050008D505000818
:10006000D5050008D5050008D5050008D505000808
:10007000D5050008D5050008D5050008D5050008F8
:10008000D5050008D5050008D5050008D5050008E8
:10009000D5050008D5050008D5050008D5050008D8
:1000A000D5050008D5050008D5050008D5050008C8
:1000B000D5050008D5050008D5050008D5050008B8
:1000C000D5050008D5050008D5050008D5050008A8
:1000D000D5050008D5050008D5050008D505000898
:1000E000D5050008D5050008D5050008D505000888
:1000F000D5050008D5050008D5050008D505000878
:10010000D5050008D5050008D5050008D505000867
:10011000D5050008D5050008D5050008D505000857
:10012000D5050008D5050008D5050008D505000847
:10013000D5050008D5050008D5050008D505000837
:10014000D5050008D5050008D5050008D505000827
:10015000D5050008D5050008D5050008D505000817
:10016000D5050008D5050008D5050008D505000807
:10017000D5050008D5050008D505000800000000D9
:10018000D5050008D5050008D5050008D5050008E7
:10019000D5050008D5050008D505000800000000B9
:1001A000D5050008D5050008D5050008364AD2F85F
:1001B000003843F48033C2F8003800230133324A58
:1001C000D2F8002812F4003F03D14FF6FF72934299
:1001D000F4D12D4BD3F8003813F4003F00D1FEE7E3
:1001E000294BD3F8402842F08052C3F840282749D1
:1001F0000A6842F440420A60D3F80828C3F8082885
:10020000D3F8082842F40042C3F80828D3F8082895
:1002100042F4A052C3F808281D4AC3F80428D3F8B2
:10022000002842F08072C3F80028174BD3F800383A
:1002300013F0007FF9D0154A136843F4803313603C
:10024000124B5B6813F4803FFAD0104A136843F4F2
:10025000003313600D4B5B6813F4003FFAD00A4B78
:10026000D3F8082822F00302C3F80828D3F8082896
:1002700042F00202C3F80828034BD3F8083813F001
:10028000080FF9D0704700BF0030024000700040F6
:100290001964400908B5FFF789FF08BD00B583B0B0
:1002A0002B4AD2F8883043F47003C2F88830294AC8
:1002B000D2F8003843F00103C2F80038254BD3F8D8
:1002C000003813F0020FF9D0224AD2F8083843F070
:1002D0008003C2F808380023019302E0019B013338
:1002E0000193019B4F2BF9D91A4AD2F8083843F0F1
:1002F0009003C2F808380023019302E0019B013308
:100300000193019B4F2BF9D9124BD3F8082822F007
:100310000302C3F80828D3F8002822F0847222F4DC
:100320008032C3F80028D3F8002822F48022C3F8D2
:1003300000280022C3F80828D3F808180649C3F893
:100340000418C3F80C28FFF7A5FF03B05DF804FB01
:1003500000ED00E00030024010300024830903F17A
:10036000804303F50E331A6800F01F00012181401D
:100370000A431A607047F0B50568C6684FF0000C74
:1003800003E00CF1010C1FFA8CFCBCF10F0F18D824
:100390004FF0010E0EFA0CFE1EEA030FF1D04FEAE9
:1003A0004C044FF0030E0EFA04FE25EA0E0501FA86
:1003B00004F73D4326EA0E0E02FA04F444EA0E0660
:1003C000DFE70560C660F0BD10B5012906D04168C1
:1003D00021EA030141608468002105E04168194376
:1003E0004160F8E7013189B20F2913D84FF0010CB1
:1003F0000CFA01FC1CEA030FF4D04FEA410C4FF059
:10040000030E0EFA0CFE24EA0E0402FA0CFC4CEA6F
:100410000404E7E7846010BDF8B540F60440FFF738
:100420009DFF40F60340FFF799FF40F60640FFF7B7
:1004300095FF4FF44060FFF791FF1A4F0823002209
:1004400001213846FFF797FF174E80230022012134
:100450003046FFF790FF154D082300220121284662
:10046000FFF789FF124C2023002201212046FFF7CD
:1004700082FF0823022200213846FFF7A5FF8023D0
:10048000022200213046FFF79FFF082302220021AD
:100490002846FFF799FF2023022200212046FFF77C
:1004A00093FFF8BD00100240000C0240001802400B
:1004B000000002400C4B1B680C4AA2FB03239B0963
:1004C000013BB3F1807F0DD24FF0E0225361084B26
:1004D000F02183F82310002191610720106183F837
:1004E00023107047FEE700BF00000020D34D6210CC
:1004F00000ED00E0034B1860024B1B68002BFBD1A2
:10050000704700BF04020020034B1B681BB1024A66
:100510001368013B136070470402002008B5FFF721
:10052000C9FFFFF779FF01240C4BC3F88C424FF44D
:10053000FA70FFF7DFFF0A4BC3F89C424FF4FA70E2
:10054000FFF7D8FF074BC3F88C424FF4FA70FFF760
:10055000D1FF054BC3F89442E5E700BF00004242DB
:100560000080414200004342000040427047FEE7E5
:10057000FEE7FEE7FEE770477047704708B5FFF7F4
:10058000C3FF08BD0E490F4A0F4B9B1A03DD043B06
:10059000C858D050FBDC0D490D4A0020521A02DD2C
:1005A000043A8850FCDCFFF779FEFFF7B7FFFEE75F
:1005B000FEE7FEE7FEE7FEE7FEE7FEE7FEE70000F8
:1005C000E0050008000000200400002004020020D4
:0805D00008020020FEE7000014
:0405D800F8B500BFB3
:0405DC00F8B500BFAF
:0405E00000C2EB0B5F
:040000050800058565
:00000001FF
